{
  "address": "0x603B0e761a707c0B173297F005d6A2AEC5bAa6dD",
  "abi": [
    {
      "inputs": [],
      "name": "ApprovalCallerNotOwnerNorApproved",
      "type": "error"
    },
    {
      "inputs": [],
      "name": "ApprovalQueryForNonexistentToken",
      "type": "error"
    },
    {
      "inputs": [],
      "name": "ApprovalToCurrentOwner",
      "type": "error"
    },
    {
      "inputs": [],
      "name": "ApproveToCaller",
      "type": "error"
    },
    {
      "inputs": [],
      "name": "BalanceQueryForZeroAddress",
      "type": "error"
    },
    {
      "inputs": [],
      "name": "MintToZeroAddress",
      "type": "error"
    },
    {
      "inputs": [],
      "name": "MintZeroQuantity",
      "type": "error"
    },
    {
      "inputs": [],
      "name": "NotIssuer",
      "type": "error"
    },
    {
      "inputs": [],
      "name": "OwnerQueryForNonexistentToken",
      "type": "error"
    },
    {
      "inputs": [],
      "name": "TransferCallerNotOwnerNorApproved",
      "type": "error"
    },
    {
      "inputs": [],
      "name": "TransferFromIncorrectOwner",
      "type": "error"
    },
    {
      "inputs": [],
      "name": "TransferToNonERC721ReceiverImplementer",
      "type": "error"
    },
    {
      "inputs": [],
      "name": "TransferToZeroAddress",
      "type": "error"
    },
    {
      "inputs": [],
      "name": "URIQueryForNonexistentToken",
      "type": "error"
    },
    {
      "anonymous": false,
      "inputs": [
        {
          "indexed": true,
          "internalType": "address",
          "name": "owner",
          "type": "address"
        },
        {
          "indexed": true,
          "internalType": "address",
          "name": "approved",
          "type": "address"
        },
        {
          "indexed": true,
          "internalType": "uint256",
          "name": "tokenId",
          "type": "uint256"
        }
      ],
      "name": "Approval",
      "type": "event"
    },
    {
      "anonymous": false,
      "inputs": [
        {
          "indexed": true,
          "internalType": "address",
          "name": "owner",
          "type": "address"
        },
        {
          "indexed": true,
          "internalType": "address",
          "name": "operator",
          "type": "address"
        },
        {
          "indexed": false,
          "internalType": "bool",
          "name": "approved",
          "type": "bool"
        }
      ],
      "name": "ApprovalForAll",
      "type": "event"
    },
    {
      "anonymous": false,
      "inputs": [
        {
          "indexed": false,
          "internalType": "uint8",
          "name": "version",
          "type": "uint8"
        }
      ],
      "name": "Initialized",
      "type": "event"
    },
    {
      "anonymous": false,
      "inputs": [
        {
          "indexed": true,
          "internalType": "address",
          "name": "issuer",
          "type": "address"
        },
        {
          "indexed": true,
          "internalType": "address",
          "name": "holder",
          "type": "address"
        },
        {
          "indexed": true,
          "internalType": "uint256",
          "name": "tokenId",
          "type": "uint256"
        }
      ],
      "name": "Issue",
      "type": "event"
    },
    {
      "anonymous": false,
      "inputs": [
        {
          "indexed": true,
          "internalType": "address",
          "name": "account",
          "type": "address"
        },
        {
          "indexed": false,
          "internalType": "string",
          "name": "tokens",
          "type": "string"
        }
      ],
      "name": "Minted",
      "type": "event"
    },
    {
      "anonymous": false,
      "inputs": [
        {
          "indexed": false,
          "internalType": "address",
          "name": "prevOwner",
          "type": "address"
        },
        {
          "indexed": false,
          "internalType": "address",
          "name": "newOwner",
          "type": "address"
        }
      ],
      "name": "OwnerUpdated",
      "type": "event"
    },
    {
      "anonymous": false,
      "inputs": [
        {
          "indexed": false,
          "internalType": "address",
          "name": "account",
          "type": "address"
        }
      ],
      "name": "Paused",
      "type": "event"
    },
    {
      "anonymous": false,
      "inputs": [
        {
          "indexed": true,
          "internalType": "address",
          "name": "issuer",
          "type": "address"
        },
        {
          "indexed": true,
          "internalType": "address",
          "name": "holder",
          "type": "address"
        },
        {
          "indexed": true,
          "internalType": "uint256",
          "name": "tokenId",
          "type": "uint256"
        }
      ],
      "name": "Revoke",
      "type": "event"
    },
    {
      "anonymous": false,
      "inputs": [
        {
          "indexed": true,
          "internalType": "bytes32",
          "name": "role",
          "type": "bytes32"
        },
        {
          "indexed": true,
          "internalType": "bytes32",
          "name": "previousAdminRole",
          "type": "bytes32"
        },
        {
          "indexed": true,
          "internalType": "bytes32",
          "name": "newAdminRole",
          "type": "bytes32"
        }
      ],
      "name": "RoleAdminChanged",
      "type": "event"
    },
    {
      "anonymous": false,
      "inputs": [
        {
          "indexed": true,
          "internalType": "bytes32",
          "name": "role",
          "type": "bytes32"
        },
        {
          "indexed": true,
          "internalType": "address",
          "name": "account",
          "type": "address"
        },
        {
          "indexed": true,
          "internalType": "address",
          "name": "sender",
          "type": "address"
        }
      ],
      "name": "RoleGranted",
      "type": "event"
    },
    {
      "anonymous": false,
      "inputs": [
        {
          "indexed": true,
          "internalType": "bytes32",
          "name": "role",
          "type": "bytes32"
        },
        {
          "indexed": true,
          "internalType": "address",
          "name": "account",
          "type": "address"
        },
        {
          "indexed": true,
          "internalType": "address",
          "name": "sender",
          "type": "address"
        }
      ],
      "name": "RoleRevoked",
      "type": "event"
    },
    {
      "anonymous": false,
      "inputs": [
        {
          "indexed": true,
          "internalType": "address",
          "name": "issuer",
          "type": "address"
        },
        {
          "indexed": true,
          "internalType": "uint256",
          "name": "tokenId",
          "type": "uint256"
        },
        {
          "indexed": false,
          "internalType": "uint8",
          "name": "attributeId",
          "type": "uint8"
        },
        {
          "indexed": false,
          "internalType": "bytes32",
          "name": "value",
          "type": "bytes32"
        }
      ],
      "name": "SetAttribute",
      "type": "event"
    },
    {
      "anonymous": false,
      "inputs": [
        {
          "indexed": true,
          "internalType": "address",
          "name": "from",
          "type": "address"
        },
        {
          "indexed": true,
          "internalType": "address",
          "name": "to",
          "type": "address"
        },
        {
          "indexed": true,
          "internalType": "uint256",
          "name": "tokenId",
          "type": "uint256"
        }
      ],
      "name": "Transfer",
      "type": "event"
    },
    {
      "anonymous": false,
      "inputs": [
        {
          "indexed": false,
          "internalType": "address",
          "name": "account",
          "type": "address"
        }
      ],
      "name": "Unpaused",
      "type": "event"
    },
    {
      "inputs": [],
      "name": "DEFAULT_ADMIN_ROLE",
      "outputs": [
        {
          "internalType": "bytes32",
          "name": "",
          "type": "bytes32"
        }
      ],
      "stateMutability": "view",
      "type": "function"
    },
    {
      "inputs": [
        {
          "internalType": "address",
          "name": "to",
          "type": "address"
        },
        {
          "internalType": "uint256",
          "name": "tokenId",
          "type": "uint256"
        }
      ],
      "name": "approve",
      "outputs": [],
      "stateMutability": "nonpayable",
      "type": "function"
    },
    {
      "inputs": [
        {
          "internalType": "uint256",
          "name": "tokenId",
          "type": "uint256"
        },
        {
          "internalType": "uint8",
          "name": "attributeId",
          "type": "uint8"
        }
      ],
      "name": "attribute",
      "outputs": [
        {
          "internalType": "bytes32",
          "name": "",
          "type": "bytes32"
        }
      ],
      "stateMutability": "view",
      "type": "function"
    },
    {
      "inputs": [
        {
          "internalType": "uint256",
          "name": "",
          "type": "uint256"
        },
        {
          "internalType": "uint8",
          "name": "",
          "type": "uint8"
        }
      ],
      "name": "attributes",
      "outputs": [
        {
          "internalType": "bytes32",
          "name": "",
          "type": "bytes32"
        }
      ],
      "stateMutability": "view",
      "type": "function"
    },
    {
      "inputs": [
        {
          "internalType": "address",
          "name": "owner",
          "type": "address"
        }
      ],
      "name": "balanceOf",
      "outputs": [
        {
          "internalType": "uint256",
          "name": "",
          "type": "uint256"
        }
      ],
      "stateMutability": "view",
      "type": "function"
    },
    {
      "inputs": [],
      "name": "contractURI",
      "outputs": [
        {
          "internalType": "string",
          "name": "",
          "type": "string"
        }
      ],
      "stateMutability": "view",
      "type": "function"
    },
    {
      "inputs": [
        {
          "internalType": "uint256",
          "name": "tokenId",
          "type": "uint256"
        }
      ],
      "name": "getApproved",
      "outputs": [
        {
          "internalType": "address",
          "name": "",
          "type": "address"
        }
      ],
      "stateMutability": "view",
      "type": "function"
    },
    {
      "inputs": [
        {
          "internalType": "bytes32",
          "name": "role",
          "type": "bytes32"
        }
      ],
      "name": "getRoleAdmin",
      "outputs": [
        {
          "internalType": "bytes32",
          "name": "",
          "type": "bytes32"
        }
      ],
      "stateMutability": "view",
      "type": "function"
    },
    {
      "inputs": [
        {
          "internalType": "bytes32",
          "name": "role",
          "type": "bytes32"
        },
        {
          "internalType": "uint256",
          "name": "index",
          "type": "uint256"
        }
      ],
      "name": "getRoleMember",
      "outputs": [
        {
          "internalType": "address",
          "name": "",
          "type": "address"
        }
      ],
      "stateMutability": "view",
      "type": "function"
    },
    {
      "inputs": [
        {
          "internalType": "bytes32",
          "name": "role",
          "type": "bytes32"
        }
      ],
      "name": "getRoleMemberCount",
      "outputs": [
        {
          "internalType": "uint256",
          "name": "",
          "type": "uint256"
        }
      ],
      "stateMutability": "view",
      "type": "function"
    },
    {
      "inputs": [
        {
          "internalType": "bytes32",
          "name": "role",
          "type": "bytes32"
        },
        {
          "internalType": "address",
          "name": "account",
          "type": "address"
        }
      ],
      "name": "grantRole",
      "outputs": [],
      "stateMutability": "nonpayable",
      "type": "function"
    },
    {
      "inputs": [
        {
          "internalType": "bytes32",
          "name": "_role",
          "type": "bytes32"
        }
      ],
      "name": "hasMinRole",
      "outputs": [
        {
          "internalType": "bool",
          "name": "",
          "type": "bool"
        }
      ],
      "stateMutability": "view",
      "type": "function"
    },
    {
      "inputs": [
        {
          "internalType": "bytes32",
          "name": "role",
          "type": "bytes32"
        },
        {
          "internalType": "address",
          "name": "account",
          "type": "address"
        }
      ],
      "name": "hasRole",
      "outputs": [
        {
          "internalType": "bool",
          "name": "",
          "type": "bool"
        }
      ],
      "stateMutability": "view",
      "type": "function"
    },
    {
      "inputs": [
        {
          "internalType": "uint256",
          "name": "tokenId",
          "type": "uint256"
        }
      ],
      "name": "holderOf",
      "outputs": [
        {
          "internalType": "address",
          "name": "",
          "type": "address"
        }
      ],
      "stateMutability": "view",
      "type": "function"
    },
    {
      "inputs": [
        {
          "internalType": "address",
          "name": "_defaultAdmin",
          "type": "address"
        },
        {
          "internalType": "string",
          "name": "_name",
          "type": "string"
        },
        {
          "internalType": "string",
          "name": "_symbol",
          "type": "string"
        }
      ],
      "name": "initialize",
      "outputs": [],
      "stateMutability": "nonpayable",
      "type": "function"
    },
    {
      "inputs": [
        {
          "internalType": "address",
          "name": "owner",
          "type": "address"
        },
        {
          "internalType": "address",
          "name": "operator",
          "type": "address"
        }
      ],
      "name": "isApprovedForAll",
      "outputs": [
        {
          "internalType": "bool",
          "name": "",
          "type": "bool"
        }
      ],
      "stateMutability": "view",
      "type": "function"
    },
    {
      "inputs": [
        {
          "internalType": "address",
          "name": "__to",
          "type": "address"
        },
        {
          "internalType": "string",
          "name": "__metadataUri",
          "type": "string"
        }
      ],
      "name": "issue",
      "outputs": [],
      "stateMutability": "nonpayable",
      "type": "function"
    },
    {
      "inputs": [
        {
          "internalType": "address[]",
          "name": "__to",
          "type": "address[]"
        },
        {
          "internalType": "string[]",
          "name": "__metadataUris",
          "type": "string[]"
        }
      ],
      "name": "issueN",
      "outputs": [],
      "stateMutability": "nonpayable",
      "type": "function"
    },
    {
      "inputs": [
        {
          "internalType": "uint256",
          "name": "tokenId",
          "type": "uint256"
        }
      ],
      "name": "issuerOf",
      "outputs": [
        {
          "internalType": "address",
          "name": "",
          "type": "address"
        }
      ],
      "stateMutability": "view",
      "type": "function"
    },
    {
      "inputs": [],
      "name": "name",
      "outputs": [
        {
          "internalType": "string",
          "name": "",
          "type": "string"
        }
      ],
      "stateMutability": "view",
      "type": "function"
    },
    {
      "inputs": [],
      "name": "owner",
      "outputs": [
        {
          "internalType": "address",
          "name": "",
          "type": "address"
        }
      ],
      "stateMutability": "view",
      "type": "function"
    },
    {
      "inputs": [
        {
          "internalType": "uint256",
          "name": "tokenId",
          "type": "uint256"
        }
      ],
      "name": "ownerOf",
      "outputs": [
        {
          "internalType": "address",
          "name": "",
          "type": "address"
        }
      ],
      "stateMutability": "view",
      "type": "function"
    },
    {
      "inputs": [],
      "name": "pause",
      "outputs": [],
      "stateMutability": "nonpayable",
      "type": "function"
    },
    {
      "inputs": [],
      "name": "paused",
      "outputs": [
        {
          "internalType": "bool",
          "name": "",
          "type": "bool"
        }
      ],
      "stateMutability": "view",
      "type": "function"
    },
    {
      "inputs": [
        {
          "internalType": "bytes32",
          "name": "role",
          "type": "bytes32"
        },
        {
          "internalType": "address",
          "name": "account",
          "type": "address"
        }
      ],
      "name": "renounceRole",
      "outputs": [],
      "stateMutability": "nonpayable",
      "type": "function"
    },
    {
      "inputs": [
        {
          "internalType": "uint256",
          "name": "tokenId",
          "type": "uint256"
        }
      ],
      "name": "revoke",
      "outputs": [],
      "stateMutability": "nonpayable",
      "type": "function"
    },
    {
      "inputs": [
        {
          "internalType": "bytes32",
          "name": "role",
          "type": "bytes32"
        },
        {
          "internalType": "address",
          "name": "account",
          "type": "address"
        }
      ],
      "name": "revokeRole",
      "outputs": [],
      "stateMutability": "nonpayable",
      "type": "function"
    },
    {
      "inputs": [
        {
          "internalType": "address",
          "name": "from",
          "type": "address"
        },
        {
          "internalType": "address",
          "name": "to",
          "type": "address"
        },
        {
          "internalType": "uint256",
          "name": "tokenId",
          "type": "uint256"
        }
      ],
      "name": "safeTransferFrom",
      "outputs": [],
      "stateMutability": "nonpayable",
      "type": "function"
    },
    {
      "inputs": [
        {
          "internalType": "address",
          "name": "from",
          "type": "address"
        },
        {
          "internalType": "address",
          "name": "to",
          "type": "address"
        },
        {
          "internalType": "uint256",
          "name": "tokenId",
          "type": "uint256"
        },
        {
          "internalType": "bytes",
          "name": "_data",
          "type": "bytes"
        }
      ],
      "name": "safeTransferFrom",
      "outputs": [],
      "stateMutability": "nonpayable",
      "type": "function"
    },
    {
      "inputs": [
        {
          "internalType": "address",
          "name": "operator",
          "type": "address"
        },
        {
          "internalType": "bool",
          "name": "approved",
          "type": "bool"
        }
      ],
      "name": "setApprovalForAll",
      "outputs": [],
      "stateMutability": "nonpayable",
      "type": "function"
    },
    {
      "inputs": [
        {
          "internalType": "uint256",
          "name": "tokenId",
          "type": "uint256"
        },
        {
          "internalType": "uint8",
          "name": "attributeId",
          "type": "uint8"
        },
        {
          "internalType": "bytes32",
          "name": "value",
          "type": "bytes32"
        }
      ],
      "name": "setAttribute",
      "outputs": [],
      "stateMutability": "nonpayable",
      "type": "function"
    },
    {
      "inputs": [
        {
          "internalType": "string",
          "name": "_uri",
          "type": "string"
        }
      ],
      "name": "setContractURI",
      "outputs": [],
      "stateMutability": "nonpayable",
      "type": "function"
    },
    {
      "inputs": [
        {
          "internalType": "uint256",
          "name": "tokenId",
          "type": "uint256"
        },
        {
          "internalType": "string",
          "name": "_metadataUri",
          "type": "string"
        }
      ],
      "name": "setMetadataURI",
      "outputs": [],
      "stateMutability": "nonpayable",
      "type": "function"
    },
    {
      "inputs": [
        {
          "internalType": "address",
          "name": "_newOwner",
          "type": "address"
        }
      ],
      "name": "setOwner",
      "outputs": [],
      "stateMutability": "nonpayable",
      "type": "function"
    },
    {
      "inputs": [
        {
          "internalType": "bytes4",
          "name": "interfaceId",
          "type": "bytes4"
        }
      ],
      "name": "supportsInterface",
      "outputs": [
        {
          "internalType": "bool",
          "name": "",
          "type": "bool"
        }
      ],
      "stateMutability": "view",
      "type": "function"
    },
    {
      "inputs": [],
      "name": "symbol",
      "outputs": [
        {
          "internalType": "string",
          "name": "",
          "type": "string"
        }
      ],
      "stateMutability": "view",
      "type": "function"
    },
    {
      "inputs": [
        {
          "internalType": "uint256",
          "name": "_tokenId",
          "type": "uint256"
        }
      ],
      "name": "tokenURI",
      "outputs": [
        {
          "internalType": "string",
          "name": "",
          "type": "string"
        }
      ],
      "stateMutability": "view",
      "type": "function"
    },
    {
      "inputs": [],
      "name": "totalSupply",
      "outputs": [
        {
          "internalType": "uint256",
          "name": "",
          "type": "uint256"
        }
      ],
      "stateMutability": "view",
      "type": "function"
    },
    {
      "inputs": [
        {
          "internalType": "address",
          "name": "from",
          "type": "address"
        },
        {
          "internalType": "address",
          "name": "to",
          "type": "address"
        },
        {
          "internalType": "uint256",
          "name": "tokenId",
          "type": "uint256"
        }
      ],
      "name": "transferFrom",
      "outputs": [],
      "stateMutability": "nonpayable",
      "type": "function"
    },
    {
      "inputs": [],
      "name": "unpause",
      "outputs": [],
      "stateMutability": "nonpayable",
      "type": "function"
    }
  ],
  "transactionHash": "0xe43fd9f052174cd8157630eba6a4462fcfd54ea53775f79d2c9f98148aa0cdd6",
  "args": [],
  "numDeployments": 1,
  "solcInputHash": "2d7bab76bfd3b836e08f74c497804963",
  "bytecode": "0x608060405234801561001057600080fd5b50613013806100206000396000f3fe608060405234801561001057600080fd5b50600436106102c85760003560e01c80638456cb591161017b578063b3738dfc116100d8578063d547741f1161008c578063e8a3d48511610071578063e8a3d48514610639578063e985e9c514610641578063f86925d31461069c57600080fd5b8063d547741f146105fc578063dbacc2371461060f57600080fd5b8063c3850845116100bd578063c3850845146105aa578063c87b56dd146105d6578063ca15c873146105e957600080fd5b8063b3738dfc14610584578063b88d4fde1461059757600080fd5b8063938e3d7b1161012f578063a217fddf11610114578063a217fddf1461053f578063a22cb46514610547578063a4e2ee111461055a57600080fd5b8063938e3d7b1461052457806395d89b411461053757600080fd5b80639010d07c116101605780639010d07c146104c557806390657147146104d857806391d14854146104eb57600080fd5b80638456cb59146104b55780638da5cb5b146104bd57600080fd5b806323b872dd1161022957806342842e0e116101dd5780636352211e116101c25780636352211e1461045e57806370a08231146104715780637fdb76181461048457600080fd5b806342842e0e146103ef5780635c975abb1461045357600080fd5b80632f2ff15d1161020e5780632f2ff15d1461042557806336568abe146104385780633f4ba83a1461044b57600080fd5b806323b872dd146103ef578063248a9ca31461040257600080fd5b8063095ea7b31161028057806318160ddd1161026557806318160ddd146103835780631c24acfc146103c957806320c5429b146103dc57600080fd5b8063095ea7b31461035d57806313af40351461037057600080fd5b806306fdde03116102b157806306fdde031461030a578063081812fc1461031f578063087dce941461034a57600080fd5b806301ffc9a7146102cd57806304b444d9146102f5575b600080fd5b6102e06102db366004612807565b6106af565b60405190151581526020015b60405180910390f35b610308610303366004612884565b6106db565b005b6103126107a1565b6040516102ec919061292f565b61033261032d366004612942565b610843565b6040516001600160a01b0390911681526020016102ec565b61030861035836600461295b565b6108a6565b61030861036b36600461298e565b61091c565b61030861037e3660046129b8565b610a49565b7f2569078dfb4b0305704d3008e7403993ae9601b85f7ae5e742de3de8f8011c4154600080516020612fc78339815191525403600019015b6040519081526020016102ec565b6103086103d73660046129e4565b610b3e565b6103086103ea366004612942565b610bb5565b6103086103fd366004612a19565b610c87565b6103bb610410366004612942565b600090815260c9602052604090206001015490565b610308610433366004612a45565b610ce2565b610308610446366004612a45565b610d82565b610308610e0e565b60655460ff166102e0565b61033261046c366004612942565b610e80565b6103bb61047f3660046129b8565b610e8b565b6103bb610492366004612a71565b60009182526101316020908152604080842060ff93909316845291905290205490565b610308610ef3565b610332610f62565b6103326104d3366004612a94565b610fbb565b6103086104e6366004612b62565b610fda565b6102e06104f9366004612a45565b600091825260c9602090815260408084206001600160a01b0393909316845291905290205460ff1690565b610308610532366004612bd6565b611244565b6103126112b8565b6103bb600081565b610308610555366004612c18565b6112d7565b610332610568366004612942565b600090815261012e60205260409020546001600160a01b031690565b6102e0610592366004612942565b61138b565b6103086105a5366004612c54565b611396565b6103bb6105b8366004612a71565b61013160209081526000928352604080842090915290825290205481565b6103126105e4366004612942565b6113eb565b6103bb6105f7366004612942565b611507565b61030861060a366004612a45565b61151e565b61033261061d366004612942565b600090815261012f60205260409020546001600160a01b031690565b6103126115ea565b6102e061064f366004612cd0565b6001600160a01b0391821660009081527f2569078dfb4b0305704d3008e7403993ae9601b85f7ae5e742de3de8f8011c476020908152604080832093909416825291909152205460ff1690565b6103086106aa366004612d3f565b611679565b60006106ba826117a1565b806106d5575063152a902d60e11b6001600160e01b03198316145b92915050565b6002600154036107325760405162461bcd60e51b815260206004820152601f60248201527f5265656e7472616e637947756172643a207265656e7472616e742063616c6c0060448201526064015b60405180910390fd5b6002600155600080516020612fe783398151915261074f816117ef565b61078c5760405162461bcd60e51b815260206004820152600e60248201526d139bdd08185d5d1a1bdc9a5e995960921b6044820152606401610729565b610797848484611830565b5050600180555050565b6060600080516020612fc783398151915260020180546107c090612dab565b80601f01602080910402602001604051908101604052809291908181526020018280546107ec90612dab565b80156108395780601f1061080e57610100808354040283529160200191610839565b820191906000526020600020905b81548152906001019060200180831161081c57829003601f168201915b5050505050905090565b600061084e8261194d565b61086b576040516333d1c03960e21b815260040160405180910390fd5b5060009081527f2569078dfb4b0305704d3008e7403993ae9601b85f7ae5e742de3de8f8011c4660205260409020546001600160a01b031690565b600080516020612fe78339815191526108be816117ef565b6108fb5760405162461bcd60e51b815260206004820152600e60248201526d139bdd08185d5d1a1bdc9a5e995960921b6044820152606401610729565b6000848152610130602052604090206109159084846126e4565b5050505050565b6000610927826119ae565b9050806001600160a01b0316836001600160a01b03160361095b5760405163250fdee360e21b815260040160405180910390fd5b336001600160a01b038216146109ce576001600160a01b03811660009081527f2569078dfb4b0305704d3008e7403993ae9601b85f7ae5e742de3de8f8011c476020908152604080832033845290915290205460ff166109ce576040516367d9dca160e11b815260040160405180910390fd5b60008281527f2569078dfb4b0305704d3008e7403993ae9601b85f7ae5e742de3de8f8011c46602052604080822080546001600160a01b0319166001600160a01b0387811691821790925591518593918516917f8c5be1e5ebec7d5bd14f71427d1e84f3dd0314c0f7b2291e5b200ac8c7c3b92591a4505050565b6000610a5481611a68565b6001600160a01b03821660009081527f81fe90a866a48a634a12852c1be675b683a22307409932a7443b8029347be756602052604090205460ff16610adb5760405162461bcd60e51b815260206004820152600660248201527f2141444d494e00000000000000000000000000000000000000000000000000006044820152606401610729565b61015380546001600160a01b038481166001600160a01b031983168117909355604080519190921680825260208201939093527f8292fce18fa69edf4db7b94ea2e58241df0ae57f97e0a6c9b29067028bf92d76910160405180910390a1505050565b600080516020612fe7833981519152610b56816117ef565b610b935760405162461bcd60e51b815260206004820152600e60248201526d139bdd08185d5d1a1bdc9a5e995960921b6044820152606401610729565b5060009283526101316020908152604080852060ff9094168552929052912055565b600080516020612fe7833981519152610bcd816117ef565b610c0a5760405162461bcd60e51b815260206004820152600e60248201526d139bdd08185d5d1a1bdc9a5e995960921b6044820152606401610729565b600082815261012f602052604080822054905184926001600160a01b039092169133917fb698e31a2abee5824d0d7bcfd2339aead7f9e9ae413fba50bf554ff3fa470b7b9190a450600090815261012e6020908152604080832080546001600160a01b031990811690915561012f90925290912080549091169055565b600080516020612fe7833981519152610c9f816117ef565b610cdc5760405162461bcd60e51b815260206004820152600e60248201526d139bdd08185d5d1a1bdc9a5e995960921b6044820152606401610729565b50505050565b7f2ce8d04a9c35987429af538825cd2438cc5c5bb5dc427955f84daaa3ea105016610d0c816117ef565b610d495760405162461bcd60e51b815260206004820152600e60248201526d139bdd08185d5d1a1bdc9a5e995960921b6044820152606401610729565b600083815260c9602090815260408083206001600160a01b038616845290915290205460ff16610d7d57610d7d8383611a72565b505050565b6001600160a01b0381163314610e005760405162461bcd60e51b815260206004820152602f60248201527f416363657373436f6e74726f6c3a2063616e206f6e6c792072656e6f756e636560448201527f20726f6c657320666f722073656c6600000000000000000000000000000000006064820152608401610729565b610e0a8282611a94565b5050565b7f2ce8d04a9c35987429af538825cd2438cc5c5bb5dc427955f84daaa3ea105016610e38816117ef565b610e755760405162461bcd60e51b815260206004820152600e60248201526d139bdd08185d5d1a1bdc9a5e995960921b6044820152606401610729565b610e7d611ab6565b50565b60006106d5826119ae565b600081600003610eae576040516323d3ad8160e21b815260040160405180910390fd5b506001600160a01b031660009081527f2569078dfb4b0305704d3008e7403993ae9601b85f7ae5e742de3de8f8011c45602052604090205467ffffffffffffffff1690565b7f2ce8d04a9c35987429af538825cd2438cc5c5bb5dc427955f84daaa3ea105016610f1d816117ef565b610f5a5760405162461bcd60e51b815260206004820152600e60248201526d139bdd08185d5d1a1bdc9a5e995960921b6044820152606401610729565b610e7d611b52565b610153546001600160a01b031660009081527f81fe90a866a48a634a12852c1be675b683a22307409932a7443b8029347be756602052604081205460ff16610faa5750600090565b50610153546001600160a01b031690565b600082815260fb60205260408120610fd39083611bda565b9392505050565b7fee151c8401928dc223602bb187aff91b9a56c7cae5476ef1b3287b085a16c85f54610100900460ff16611033577fee151c8401928dc223602bb187aff91b9a56c7cae5476ef1b3287b085a16c85f5460ff1615611037565b303b155b6110a95760405162461bcd60e51b815260206004820152603760248201527f455243373231415f5f496e697469616c697a61626c653a20636f6e747261637460448201527f20697320616c726561647920696e697469616c697a65640000000000000000006064820152608401610729565b7fee151c8401928dc223602bb187aff91b9a56c7cae5476ef1b3287b085a16c85f54610100900460ff16158015611109577fee151c8401928dc223602bb187aff91b9a56c7cae5476ef1b3287b085a16c85f805461ffff19166101011790555b60006111156001611be6565b9050801561112d576000805461ff0019166101001790555b6111378484611d01565b61015380546001600160a01b0319166001600160a01b03871617905561115e600086611da7565b6111897f2ce8d04a9c35987429af538825cd2438cc5c5bb5dc427955f84daaa3ea1050166000611db1565b6111c1600080516020612fe78339815191527f2ce8d04a9c35987429af538825cd2438cc5c5bb5dc427955f84daaa3ea105016611db1565b600161012d55801561120d576000805461ff0019169055604051600181527f7f26b83ff96e1f2b6a682f133852f6798a09c465da95921460cefb38474024989060200160405180910390a15b508015610cdc5750507fee151c8401928dc223602bb187aff91b9a56c7cae5476ef1b3287b085a16c85f805461ff00191690555050565b7f2ce8d04a9c35987429af538825cd2438cc5c5bb5dc427955f84daaa3ea10501661126e816117ef565b6112ab5760405162461bcd60e51b815260206004820152600e60248201526d139bdd08185d5d1a1bdc9a5e995960921b6044820152606401610729565b610cdc61013284846126e4565b6060600080516020612fc783398151915260030180546107c090612dab565b336001600160a01b038316036113005760405163b06307db60e01b815260040160405180910390fd5b3360008181527f2569078dfb4b0305704d3008e7403993ae9601b85f7ae5e742de3de8f8011c47602090815260408083206001600160a01b03871680855290835292819020805460ff191686151590811790915590519081529192917f17307eab39ab6107e8899845ad3d59bd9653f200f220920489ca2b5937696c31910160405180910390a35050565b60006106d5826117ef565b600080516020612fe78339815191526113ae816117ef565b6109155760405162461bcd60e51b815260206004820152600e60248201526d139bdd08185d5d1a1bdc9a5e995960921b6044820152606401610729565b60606113f68261194d565b6114685760405162461bcd60e51b815260206004820152602f60248201527f4552433732314d657461646174613a2055524920717565727920666f72206e6f60448201527f6e6578697374656e7420746f6b656e00000000000000000000000000000000006064820152608401610729565b600082815261013060205260409020805461148290612dab565b80601f01602080910402602001604051908101604052809291908181526020018280546114ae90612dab565b80156114fb5780601f106114d0576101008083540402835291602001916114fb565b820191906000526020600020905b8154815290600101906020018083116114de57829003601f168201915b50505050509050919050565b600081815260fb602052604081206106d590611dfc565b7f2ce8d04a9c35987429af538825cd2438cc5c5bb5dc427955f84daaa3ea105016611548816117ef565b6115855760405162461bcd60e51b815260206004820152600e60248201526d139bdd08185d5d1a1bdc9a5e995960921b6044820152606401610729565b600083815260c9602090815260408083206001600160a01b038616845290915290205460ff1615610d7d57821580156115d657506115c1610f62565b6001600160a01b0316826001600160a01b0316145b156115e057600080fd5b610d7d8383611a94565b61013280546115f890612dab565b80601f016020809104026020016040519081016040528092919081815260200182805461162490612dab565b80156116715780601f1061164657610100808354040283529160200191611671565b820191906000526020600020905b81548152906001019060200180831161165457829003601f168201915b505050505081565b6002600154036116cb5760405162461bcd60e51b815260206004820152601f60248201527f5265656e7472616e637947756172643a207265656e7472616e742063616c6c006044820152606401610729565b6002600155600080516020612fe78339815191526116e8816117ef565b6117255760405162461bcd60e51b815260206004820152600e60248201526d139bdd08185d5d1a1bdc9a5e995960921b6044820152606401610729565b60005b848110156117955761178386868381811061174557611745612de5565b905060200201602081019061175a91906129b8565b85858481811061176c5761176c612de5565b905060200281019061177e9190612dfb565b611830565b8061178d81612e58565b915050611728565b50506001805550505050565b60006301ffc9a760e01b6001600160e01b0319831614806117d257506380ac58cd60e01b6001600160e01b03198316145b806106d55750506001600160e01b031916635b5e139f60e01b1490565b60006117fb82336104f9565b1561180857506001919050565b8161181557506000919050565b600082815260c960205260409020600101546106d5906117ef565b600080516020612fe7833981519152611848816117ef565b6118855760405162461bcd60e51b815260206004820152600e60248201526d139bdd08185d5d1a1bdc9a5e995960921b6044820152606401610729565b61012d546000908152610130602052604090206118a39084846126e4565b5061012d8054600090815261012e602090815260408083208054336001600160a01b0319918216179091559354835261012f909152902080549091166001600160a01b0386161790556118f7846001611e06565b61012d546040516001600160a01b0386169033907f4b2682685b046a3dae8e75ff49b82fa703e366056a43c6a791411011134f4f5d90600090a461012d805490600061194283612e58565b919050555050505050565b60008160011115801561196e5750600080516020612fc78339815191525482105b80156106d557505060009081527f2569078dfb4b0305704d3008e7403993ae9601b85f7ae5e742de3de8f8011c446020526040902054600160e01b161590565b60008180600111611a4f57600080516020612fc783398151915254811015611a4f5760008181527f2569078dfb4b0305704d3008e7403993ae9601b85f7ae5e742de3de8f8011c44602052604081205490600160e01b82169003611a4d575b80600003610fd357506000190160008181527f2569078dfb4b0305704d3008e7403993ae9601b85f7ae5e742de3de8f8011c446020526040902054611a0d565b505b604051636f96cda160e11b815260040160405180910390fd5b610e7d8133611e20565b611a7c8282611ea0565b600082815260fb60205260409020610d7d9082611f42565b611a9e8282611f57565b600082815260fb60205260409020610d7d9082611fda565b60655460ff16611b085760405162461bcd60e51b815260206004820152601460248201527f5061757361626c653a206e6f74207061757365640000000000000000000000006044820152606401610729565b6065805460ff191690557f5db9ee0a495bf2e6ff9c91a7834c1ba4fdd244a5e8aa4e537bd38aeae4b073aa335b6040516001600160a01b03909116815260200160405180910390a1565b60655460ff1615611ba55760405162461bcd60e51b815260206004820152601060248201527f5061757361626c653a20706175736564000000000000000000000000000000006044820152606401610729565b6065805460ff191660011790557f62e78cea01bee320cd4e420270b5ea74000d11b0c9f74754ebdbfc544b05a258611b353390565b6000610fd38383611fef565b60008054610100900460ff1615611c74578160ff166001148015611c095750303b155b611c6c5760405162461bcd60e51b815260206004820152602e60248201527f496e697469616c697a61626c653a20636f6e747261637420697320616c72656160448201526d191e481a5b9a5d1a585b1a5e995960921b6064820152608401610729565b506000919050565b60005460ff808416911610611ce25760405162461bcd60e51b815260206004820152602e60248201527f496e697469616c697a61626c653a20636f6e747261637420697320616c72656160448201526d191e481a5b9a5d1a585b1a5e995960921b6064820152608401610729565b506000805460ff191660ff92909216919091179055600190565b919050565b7fee151c8401928dc223602bb187aff91b9a56c7cae5476ef1b3287b085a16c85f54610100900460ff16611d9d5760405162461bcd60e51b815260206004820152603460248201527f455243373231415f5f496e697469616c697a61626c653a20636f6e747261637460448201527f206973206e6f7420696e697469616c697a696e670000000000000000000000006064820152608401610729565b610e0a8282612019565b610e0a8282611a72565b600082815260c96020526040808220600101805490849055905190918391839186917fbd79b86ffe0ab8e8776151514217cd7cacd52c909f66475c3af44e129f0b00ff9190a4505050565b60006106d5825490565b610e0a828260405180602001604052806000815250612131565b600082815260c9602090815260408083206001600160a01b038516845290915290205460ff16610e0a57611e5e816001600160a01b0316601461230e565b611e6983602061230e565b604051602001611e7a929190612e71565b60408051601f198184030181529082905262461bcd60e51b82526107299160040161292f565b600082815260c9602090815260408083206001600160a01b038516845290915290205460ff16610e0a57600082815260c9602090815260408083206001600160a01b03851684529091529020805460ff19166001179055611efe3390565b6001600160a01b0316816001600160a01b0316837f2f8788117e7eff1d82e926ec794901d17c78024a50270940304540a733656f0d60405160405180910390a45050565b6000610fd3836001600160a01b0384166124b7565b600082815260c9602090815260408083206001600160a01b038516845290915290205460ff1615610e0a57600082815260c9602090815260408083206001600160a01b0385168085529252808320805460ff1916905551339285917ff6391f5c32d9c69d2a47ea670b442974b53935d1edc7fd64eb21e047a839171b9190a45050565b6000610fd3836001600160a01b038416612506565b600082600001828154811061200657612006612de5565b9060005260206000200154905092915050565b7fee151c8401928dc223602bb187aff91b9a56c7cae5476ef1b3287b085a16c85f54610100900460ff166120b55760405162461bcd60e51b815260206004820152603460248201527f455243373231415f5f496e697469616c697a61626c653a20636f6e747261637460448201527f206973206e6f7420696e697469616c697a696e670000000000000000000000006064820152608401610729565b81516120e7907f2569078dfb4b0305704d3008e7403993ae9601b85f7ae5e742de3de8f8011c42906020850190612768565b50805161211a907f2569078dfb4b0305704d3008e7403993ae9601b85f7ae5e742de3de8f8011c43906020840190612768565b506001600080516020612fc7833981519152555050565b600080516020612fc783398151915254600084900361216257604051622e076360e81b815260040160405180910390fd5b826000036121835760405163b562e8dd60e01b815260040160405180910390fd5b6001600160a01b03841660009081527f2569078dfb4b0305704d3008e7403993ae9601b85f7ae5e742de3de8f8011c4560205260409020805468010000000000000001850201905560e16001841460008381527f2569078dfb4b0305704d3008e7403993ae9601b85f7ae5e742de3de8f8011c4460205260409020911b4260a01b8617179055808381016001600160a01b0386163b156122ad575b60405182906001600160a01b038816906000907fddf252ad1be2c89b69c2b068fc378daa952ba7f163c4a11628f55a4df523b3ef908290a461226960008784806001019550876125f9565b612286576040516368d2bf6b60e11b815260040160405180910390fd5b80821061221e5782600080516020612fc783398151915254146122a857600080fd5b6122f2565b5b6040516001830192906001600160a01b038816906000907fddf252ad1be2c89b69c2b068fc378daa952ba7f163c4a11628f55a4df523b3ef908290a48082106122ae575b50600080516020612fc783398151915255610cdc600085838684565b6060600061231d836002612ef2565b612328906002612f11565b67ffffffffffffffff81111561234057612340612ab6565b6040519080825280601f01601f19166020018201604052801561236a576020820181803683370190505b509050600360fc1b8160008151811061238557612385612de5565b60200101906001600160f81b031916908160001a905350600f60fb1b816001815181106123b4576123b4612de5565b60200101906001600160f81b031916908160001a90535060006123d8846002612ef2565b6123e3906001612f11565b90505b6001811115612468577f303132333435363738396162636465660000000000000000000000000000000085600f166010811061242457612424612de5565b1a60f81b82828151811061243a5761243a612de5565b60200101906001600160f81b031916908160001a90535060049490941c9361246181612f29565b90506123e6565b508315610fd35760405162461bcd60e51b815260206004820181905260248201527f537472696e67733a20686578206c656e67746820696e73756666696369656e746044820152606401610729565b60008181526001830160205260408120546124fe575081546001818101845560008481526020808220909301849055845484825282860190935260409020919091556106d5565b5060006106d5565b600081815260018301602052604081205480156125ef57600061252a600183612f40565b855490915060009061253e90600190612f40565b90508181146125a357600086600001828154811061255e5761255e612de5565b906000526020600020015490508087600001848154811061258157612581612de5565b6000918252602080832090910192909255918252600188019052604090208390555b85548690806125b4576125b4612f57565b6001900381819060005260206000200160009055905585600101600086815260200190815260200160002060009055600193505050506106d5565b60009150506106d5565b604051630a85bd0160e11b81526000906001600160a01b0385169063150b7a029061262e903390899088908890600401612f6d565b6020604051808303816000875af1925050508015612669575060408051601f3d908101601f1916820190925261266691810190612fa9565b60015b6126c7573d808015612697576040519150601f19603f3d011682016040523d82523d6000602084013e61269c565b606091505b5080516000036126bf576040516368d2bf6b60e11b815260040160405180910390fd5b805181602001fd5b6001600160e01b031916630a85bd0160e11b149050949350505050565b8280546126f090612dab565b90600052602060002090601f0160209004810192826127125760008555612758565b82601f1061272b5782800160ff19823516178555612758565b82800160010185558215612758579182015b8281111561275857823582559160200191906001019061273d565b506127649291506127dc565b5090565b82805461277490612dab565b90600052602060002090601f0160209004810192826127965760008555612758565b82601f106127af57805160ff1916838001178555612758565b82800160010185558215612758579182015b828111156127585782518255916020019190600101906127c1565b5b8082111561276457600081556001016127dd565b6001600160e01b031981168114610e7d57600080fd5b60006020828403121561281957600080fd5b8135610fd3816127f1565b80356001600160a01b0381168114611cfc57600080fd5b60008083601f84011261284d57600080fd5b50813567ffffffffffffffff81111561286557600080fd5b60208301915083602082850101111561287d57600080fd5b9250929050565b60008060006040848603121561289957600080fd5b6128a284612824565b9250602084013567ffffffffffffffff8111156128be57600080fd5b6128ca8682870161283b565b9497909650939450505050565b60005b838110156128f25781810151838201526020016128da565b83811115610cdc5750506000910152565b6000815180845261291b8160208601602086016128d7565b601f01601f19169290920160200192915050565b602081526000610fd36020830184612903565b60006020828403121561295457600080fd5b5035919050565b60008060006040848603121561297057600080fd5b83359250602084013567ffffffffffffffff8111156128be57600080fd5b600080604083850312156129a157600080fd5b6129aa83612824565b946020939093013593505050565b6000602082840312156129ca57600080fd5b610fd382612824565b803560ff81168114611cfc57600080fd5b6000806000606084860312156129f957600080fd5b83359250612a09602085016129d3565b9150604084013590509250925092565b600080600060608486031215612a2e57600080fd5b612a3784612824565b9250612a0960208501612824565b60008060408385031215612a5857600080fd5b82359150612a6860208401612824565b90509250929050565b60008060408385031215612a8457600080fd5b82359150612a68602084016129d3565b60008060408385031215612aa757600080fd5b50508035926020909101359150565b634e487b7160e01b600052604160045260246000fd5b600067ffffffffffffffff80841115612ae757612ae7612ab6565b604051601f8501601f19908116603f01168101908282118183101715612b0f57612b0f612ab6565b81604052809350858152868686011115612b2857600080fd5b858560208301376000602087830101525050509392505050565b600082601f830112612b5357600080fd5b610fd383833560208501612acc565b600080600060608486031215612b7757600080fd5b612b8084612824565b9250602084013567ffffffffffffffff80821115612b9d57600080fd5b612ba987838801612b42565b93506040860135915080821115612bbf57600080fd5b50612bcc86828701612b42565b9150509250925092565b60008060208385031215612be957600080fd5b823567ffffffffffffffff811115612c0057600080fd5b612c0c8582860161283b565b90969095509350505050565b60008060408385031215612c2b57600080fd5b612c3483612824565b915060208301358015158114612c4957600080fd5b809150509250929050565b60008060008060808587031215612c6a57600080fd5b612c7385612824565b9350612c8160208601612824565b925060408501359150606085013567ffffffffffffffff811115612ca457600080fd5b8501601f81018713612cb557600080fd5b612cc487823560208401612acc565b91505092959194509250565b60008060408385031215612ce357600080fd5b612cec83612824565b9150612a6860208401612824565b60008083601f840112612d0c57600080fd5b50813567ffffffffffffffff811115612d2457600080fd5b6020830191508360208260051b850101111561287d57600080fd5b60008060008060408587031215612d5557600080fd5b843567ffffffffffffffff80821115612d6d57600080fd5b612d7988838901612cfa565b90965094506020870135915080821115612d9257600080fd5b50612d9f87828801612cfa565b95989497509550505050565b600181811c90821680612dbf57607f821691505b602082108103612ddf57634e487b7160e01b600052602260045260246000fd5b50919050565b634e487b7160e01b600052603260045260246000fd5b6000808335601e19843603018112612e1257600080fd5b83018035915067ffffffffffffffff821115612e2d57600080fd5b60200191503681900382131561287d57600080fd5b634e487b7160e01b600052601160045260246000fd5b600060018201612e6a57612e6a612e42565b5060010190565b7f416363657373436f6e74726f6c3a206163636f756e7420000000000000000000815260008351612ea98160178501602088016128d7565b7f206973206d697373696e6720726f6c65200000000000000000000000000000006017918401918201528351612ee68160288401602088016128d7565b01602801949350505050565b6000816000190483118215151615612f0c57612f0c612e42565b500290565b60008219821115612f2457612f24612e42565b500190565b600081612f3857612f38612e42565b506000190190565b600082821015612f5257612f52612e42565b500390565b634e487b7160e01b600052603160045260246000fd5b60006001600160a01b03808716835280861660208401525083604083015260806060830152612f9f6080830184612903565b9695505050505050565b600060208284031215612fbb57600080fd5b8151610fd3816127f156fe2569078dfb4b0305704d3008e7403993ae9601b85f7ae5e742de3de8f8011c40114e74f6ea3bd819998f78687bfcb11b140da08e9b7d222fa9c1f1ba1f2aa122a164736f6c634300080d000a",
  "devdoc": {
    "kind": "dev",
    "methods": {
      "approve(address,uint256)": {
        "details": "See {IERC721-approve}."
      },
      "balanceOf(address)": {
        "details": "See {IERC721-balanceOf}."
      },
      "getApproved(uint256)": {
        "details": "See {IERC721-getApproved}."
      },
      "getRoleAdmin(bytes32)": {
        "details": "Returns the admin role that controls `role`. See {grantRole} and {revokeRole}. To change a role's admin, use {_setRoleAdmin}."
      },
      "getRoleMember(bytes32,uint256)": {
        "details": "Returns one of the accounts that have `role`. `index` must be a value between 0 and {getRoleMemberCount}, non-inclusive. Role bearers are not sorted in any particular way, and their ordering may change at any point. WARNING: When using {getRoleMember} and {getRoleMemberCount}, make sure you perform all queries on the same block. See the following https://forum.openzeppelin.com/t/iterating-over-elements-on-enumerableset-in-openzeppelin-contracts/2296[forum post] for more information."
      },
      "getRoleMemberCount(bytes32)": {
        "details": "Returns the number of accounts that have `role`. Can be used together with {getRoleMember} to enumerate all bearers of a role."
      },
      "hasRole(bytes32,address)": {
        "details": "Returns `true` if `account` has been granted `role`."
      },
      "isApprovedForAll(address,address)": {
        "details": "See {IERC721-isApprovedForAll}."
      },
      "name()": {
        "details": "See {IERC721Metadata-name}."
      },
      "owner()": {
        "details": "Returns the address of the current owner."
      },
      "ownerOf(uint256)": {
        "details": "See {IERC721-ownerOf}."
      },
      "paused()": {
        "details": "Returns true if the contract is paused, and false otherwise."
      },
      "renounceRole(bytes32,address)": {
        "details": "Revokes `role` from the calling account. Roles are often managed via {grantRole} and {revokeRole}: this function's purpose is to provide a mechanism for accounts to lose their privileges if they are compromised (such as when a trusted device is misplaced). If the calling account had been revoked `role`, emits a {RoleRevoked} event. Requirements: - the caller must be `account`."
      },
      "safeTransferFrom(address,address,uint256)": {
        "details": "See {IERC721-safeTransferFrom}."
      },
      "safeTransferFrom(address,address,uint256,bytes)": {
        "details": "See {IERC721-safeTransferFrom}."
      },
      "setApprovalForAll(address,bool)": {
        "details": "See {IERC721-setApprovalForAll}."
      },
      "setContractURI(string)": {
        "details": "Lets a contract admin set the URI for contract-level metadata."
      },
      "setMetadataURI(uint256,string)": {
        "details": "Lets an issuer set the metadataUri for contract-level metadata."
      },
      "setOwner(address)": {
        "details": "Lets a contract admin set a new owner for the contract. The new owner must be a contract admin."
      },
      "supportsInterface(bytes4)": {
        "details": "see {IERC165-supportsInterface}"
      },
      "symbol()": {
        "details": "See {IERC721Metadata-symbol}."
      },
      "tokenURI(uint256)": {
        "details": "see {IERC721Metadata}"
      },
      "totalSupply()": {
        "details": "Returns the total number of tokens in existence. Burned tokens will reduce the count. To get the total number of tokens minted, please see `_totalMinted`."
      },
      "transferFrom(address,address,uint256)": {
        "details": "See {IERC721-transferFrom}."
      }
    },
    "version": 1
  },
  "userdoc": {
    "errors": {
      "ApprovalCallerNotOwnerNorApproved()": [
        {
          "notice": "The caller must own the token or be an approved operator."
        }
      ],
      "ApprovalQueryForNonexistentToken()": [
        {
          "notice": "The token does not exist."
        }
      ],
      "ApprovalToCurrentOwner()": [
        {
          "notice": "The caller cannot approve to the current owner."
        }
      ],
      "ApproveToCaller()": [
        {
          "notice": "The caller cannot approve to their own address."
        }
      ],
      "BalanceQueryForZeroAddress()": [
        {
          "notice": "Cannot query the balance for the zero address."
        }
      ],
      "MintToZeroAddress()": [
        {
          "notice": "Cannot mint to the zero address."
        }
      ],
      "MintZeroQuantity()": [
        {
          "notice": "The quantity of tokens minted must be more than zero."
        }
      ],
      "OwnerQueryForNonexistentToken()": [
        {
          "notice": "The token does not exist."
        }
      ],
      "TransferCallerNotOwnerNorApproved()": [
        {
          "notice": "The caller must own the token or be an approved operator."
        }
      ],
      "TransferFromIncorrectOwner()": [
        {
          "notice": "The token must be owned by `from`."
        }
      ],
      "TransferToNonERC721ReceiverImplementer()": [
        {
          "notice": "Cannot safely transfer to a contract that does not implement the ERC721Receiver interface."
        }
      ],
      "TransferToZeroAddress()": [
        {
          "notice": "Cannot transfer to the zero address."
        }
      ],
      "URIQueryForNonexistentToken()": [
        {
          "notice": "The token does not exist."
        }
      ]
    },
    "kind": "user",
    "methods": {
      "attribute(uint256,uint8)": {
        "notice": "Takes the token ID and pre-defined attribute ID as parameters. Returns a 32-byte value that can be decoded as a number, string, byte array etc. If the value is of a dynamic length (longer than 32 bytes)  this can be a pointer to another custom data structure. The attribute storage is limited to 1 byte per key and 32 bytes per value for efficiency."
      }
    },
    "version": 1
  },
  "storageLayout": {
    "storage": [
      {
        "astId": 608,
        "contract": "contracts/CloudStateSoulboundUpgradeable.sol:CloudStateSoulboundUpgradeable",
        "label": "_initialized",
        "offset": 0,
        "slot": "0",
        "type": "t_uint8"
      },
      {
        "astId": 611,
        "contract": "contracts/CloudStateSoulboundUpgradeable.sol:CloudStateSoulboundUpgradeable",
        "label": "_initializing",
        "offset": 1,
        "slot": "0",
        "type": "t_bool"
      },
      {
        "astId": 868,
        "contract": "contracts/CloudStateSoulboundUpgradeable.sol:CloudStateSoulboundUpgradeable",
        "label": "_status",
        "offset": 0,
        "slot": "1",
        "type": "t_uint256"
      },
      {
        "astId": 912,
        "contract": "contracts/CloudStateSoulboundUpgradeable.sol:CloudStateSoulboundUpgradeable",
        "label": "__gap",
        "offset": 0,
        "slot": "2",
        "type": "t_array(t_uint256)49_storage"
      },
      {
        "astId": 1197,
        "contract": "contracts/CloudStateSoulboundUpgradeable.sol:CloudStateSoulboundUpgradeable",
        "label": "__gap",
        "offset": 0,
        "slot": "51",
        "type": "t_array(t_uint256)50_storage"
      },
      {
        "astId": 764,
        "contract": "contracts/CloudStateSoulboundUpgradeable.sol:CloudStateSoulboundUpgradeable",
        "label": "_paused",
        "offset": 0,
        "slot": "101",
        "type": "t_bool"
      },
      {
        "astId": 853,
        "contract": "contracts/CloudStateSoulboundUpgradeable.sol:CloudStateSoulboundUpgradeable",
        "label": "__gap",
        "offset": 0,
        "slot": "102",
        "type": "t_array(t_uint256)49_storage"
      },
      {
        "astId": 1553,
        "contract": "contracts/CloudStateSoulboundUpgradeable.sol:CloudStateSoulboundUpgradeable",
        "label": "__gap",
        "offset": 0,
        "slot": "151",
        "type": "t_array(t_uint256)50_storage"
      },
      {
        "astId": 184,
        "contract": "contracts/CloudStateSoulboundUpgradeable.sol:CloudStateSoulboundUpgradeable",
        "label": "_roles",
        "offset": 0,
        "slot": "201",
        "type": "t_mapping(t_bytes32,t_struct(RoleData)179_storage)"
      },
      {
        "astId": 483,
        "contract": "contracts/CloudStateSoulboundUpgradeable.sol:CloudStateSoulboundUpgradeable",
        "label": "__gap",
        "offset": 0,
        "slot": "202",
        "type": "t_array(t_uint256)49_storage"
      },
      {
        "astId": 33,
        "contract": "contracts/CloudStateSoulboundUpgradeable.sol:CloudStateSoulboundUpgradeable",
        "label": "_roleMembers",
        "offset": 0,
        "slot": "251",
        "type": "t_mapping(t_bytes32,t_struct(AddressSet)1878_storage)"
      },
      {
        "astId": 143,
        "contract": "contracts/CloudStateSoulboundUpgradeable.sol:CloudStateSoulboundUpgradeable",
        "label": "__gap",
        "offset": 0,
        "slot": "252",
        "type": "t_array(t_uint256)49_storage"
      },
      {
        "astId": 2311,
        "contract": "contracts/CloudStateSoulboundUpgradeable.sol:CloudStateSoulboundUpgradeable",
        "label": "nextTokenId",
        "offset": 0,
        "slot": "301",
        "type": "t_uint256"
      },
      {
        "astId": 2315,
        "contract": "contracts/CloudStateSoulboundUpgradeable.sol:CloudStateSoulboundUpgradeable",
        "label": "issuers",
        "offset": 0,
        "slot": "302",
        "type": "t_mapping(t_uint256,t_address)"
      },
      {
        "astId": 2319,
        "contract": "contracts/CloudStateSoulboundUpgradeable.sol:CloudStateSoulboundUpgradeable",
        "label": "holders",
        "offset": 0,
        "slot": "303",
        "type": "t_mapping(t_uint256,t_address)"
      },
      {
        "astId": 2323,
        "contract": "contracts/CloudStateSoulboundUpgradeable.sol:CloudStateSoulboundUpgradeable",
        "label": "metadataUris",
        "offset": 0,
        "slot": "304",
        "type": "t_mapping(t_uint256,t_string_storage)"
      },
      {
        "astId": 2329,
        "contract": "contracts/CloudStateSoulboundUpgradeable.sol:CloudStateSoulboundUpgradeable",
        "label": "attributes",
        "offset": 0,
        "slot": "305",
        "type": "t_mapping(t_uint256,t_mapping(t_uint8,t_bytes32))"
      },
      {
        "astId": 2331,
        "contract": "contracts/CloudStateSoulboundUpgradeable.sol:CloudStateSoulboundUpgradeable",
        "label": "contractURI",
        "offset": 0,
        "slot": "306",
        "type": "t_string_storage"
      },
      {
        "astId": 2345,
        "contract": "contracts/CloudStateSoulboundUpgradeable.sol:CloudStateSoulboundUpgradeable",
        "label": "_gap",
        "offset": 0,
        "slot": "307",
        "type": "t_array(t_bytes32)32_storage"
      },
      {
        "astId": 2347,
        "contract": "contracts/CloudStateSoulboundUpgradeable.sol:CloudStateSoulboundUpgradeable",
        "label": "_owner",
        "offset": 0,
        "slot": "339",
        "type": "t_address"
      },
      {
        "astId": 2933,
        "contract": "contracts/CloudStateSoulboundUpgradeable.sol:CloudStateSoulboundUpgradeable",
        "label": "__gap",
        "offset": 0,
        "slot": "340",
        "type": "t_array(t_uint256)45_storage"
      }
    ],
    "types": {
      "t_address": {
        "encoding": "inplace",
        "label": "address",
        "numberOfBytes": "20"
      },
      "t_array(t_bytes32)32_storage": {
        "base": "t_bytes32",
        "encoding": "inplace",
        "label": "bytes32[32]",
        "numberOfBytes": "1024"
      },
      "t_array(t_bytes32)dyn_storage": {
        "base": "t_bytes32",
        "encoding": "dynamic_array",
        "label": "bytes32[]",
        "numberOfBytes": "32"
      },
      "t_array(t_uint256)45_storage": {
        "base": "t_uint256",
        "encoding": "inplace",
        "label": "uint256[45]",
        "numberOfBytes": "1440"
      },
      "t_array(t_uint256)49_storage": {
        "base": "t_uint256",
        "encoding": "inplace",
        "label": "uint256[49]",
        "numberOfBytes": "1568"
      },
      "t_array(t_uint256)50_storage": {
        "base": "t_uint256",
        "encoding": "inplace",
        "label": "uint256[50]",
        "numberOfBytes": "1600"
      },
      "t_bool": {
        "encoding": "inplace",
        "label": "bool",
        "numberOfBytes": "1"
      },
      "t_bytes32": {
        "encoding": "inplace",
        "label": "bytes32",
        "numberOfBytes": "32"
      },
      "t_mapping(t_address,t_bool)": {
        "encoding": "mapping",
        "key": "t_address",
        "label": "mapping(address => bool)",
        "numberOfBytes": "32",
        "value": "t_bool"
      },
      "t_mapping(t_bytes32,t_struct(AddressSet)1878_storage)": {
        "encoding": "mapping",
        "key": "t_bytes32",
        "label": "mapping(bytes32 => struct EnumerableSetUpgradeable.AddressSet)",
        "numberOfBytes": "32",
        "value": "t_struct(AddressSet)1878_storage"
      },
      "t_mapping(t_bytes32,t_struct(RoleData)179_storage)": {
        "encoding": "mapping",
        "key": "t_bytes32",
        "label": "mapping(bytes32 => struct AccessControlUpgradeable.RoleData)",
        "numberOfBytes": "32",
        "value": "t_struct(RoleData)179_storage"
      },
      "t_mapping(t_bytes32,t_uint256)": {
        "encoding": "mapping",
        "key": "t_bytes32",
        "label": "mapping(bytes32 => uint256)",
        "numberOfBytes": "32",
        "value": "t_uint256"
      },
      "t_mapping(t_uint256,t_address)": {
        "encoding": "mapping",
        "key": "t_uint256",
        "label": "mapping(uint256 => address)",
        "numberOfBytes": "32",
        "value": "t_address"
      },
      "t_mapping(t_uint256,t_mapping(t_uint8,t_bytes32))": {
        "encoding": "mapping",
        "key": "t_uint256",
        "label": "mapping(uint256 => mapping(uint8 => bytes32))",
        "numberOfBytes": "32",
        "value": "t_mapping(t_uint8,t_bytes32)"
      },
      "t_mapping(t_uint256,t_string_storage)": {
        "encoding": "mapping",
        "key": "t_uint256",
        "label": "mapping(uint256 => string)",
        "numberOfBytes": "32",
        "value": "t_string_storage"
      },
      "t_mapping(t_uint8,t_bytes32)": {
        "encoding": "mapping",
        "key": "t_uint8",
        "label": "mapping(uint8 => bytes32)",
        "numberOfBytes": "32",
        "value": "t_bytes32"
      },
      "t_string_storage": {
        "encoding": "bytes",
        "label": "string",
        "numberOfBytes": "32"
      },
      "t_struct(AddressSet)1878_storage": {
        "encoding": "inplace",
        "label": "struct EnumerableSetUpgradeable.AddressSet",
        "members": [
          {
            "astId": 1877,
            "contract": "contracts/CloudStateSoulboundUpgradeable.sol:CloudStateSoulboundUpgradeable",
            "label": "_inner",
            "offset": 0,
            "slot": "0",
            "type": "t_struct(Set)1577_storage"
          }
        ],
        "numberOfBytes": "64"
      },
      "t_struct(RoleData)179_storage": {
        "encoding": "inplace",
        "label": "struct AccessControlUpgradeable.RoleData",
        "members": [
          {
            "astId": 176,
            "contract": "contracts/CloudStateSoulboundUpgradeable.sol:CloudStateSoulboundUpgradeable",
            "label": "members",
            "offset": 0,
            "slot": "0",
            "type": "t_mapping(t_address,t_bool)"
          },
          {
            "astId": 178,
            "contract": "contracts/CloudStateSoulboundUpgradeable.sol:CloudStateSoulboundUpgradeable",
            "label": "adminRole",
            "offset": 0,
            "slot": "1",
            "type": "t_bytes32"
          }
        ],
        "numberOfBytes": "64"
      },
      "t_struct(Set)1577_storage": {
        "encoding": "inplace",
        "label": "struct EnumerableSetUpgradeable.Set",
        "members": [
          {
            "astId": 1572,
            "contract": "contracts/CloudStateSoulboundUpgradeable.sol:CloudStateSoulboundUpgradeable",
            "label": "_values",
            "offset": 0,
            "slot": "0",
            "type": "t_array(t_bytes32)dyn_storage"
          },
          {
            "astId": 1576,
            "contract": "contracts/CloudStateSoulboundUpgradeable.sol:CloudStateSoulboundUpgradeable",
            "label": "_indexes",
            "offset": 0,
            "slot": "1",
            "type": "t_mapping(t_bytes32,t_uint256)"
          }
        ],
        "numberOfBytes": "64"
      },
      "t_uint256": {
        "encoding": "inplace",
        "label": "uint256",
        "numberOfBytes": "32"
      },
      "t_uint8": {
        "encoding": "inplace",
        "label": "uint8",
        "numberOfBytes": "1"
      }
    }
  }
}